:020000040000FA
:02000000FA2BD9
:10077E0005340034831685010130831285000D3057
:10078E008F00FB308E008E0BCA2B8F0BCA2BCF2BFC
:10079E00831205088E000E0785000D308F00FB308A
:1007AE008E008E0BD82B8F0BD82BDD2B83120508CA
:1007BE008E000E0785000D308F00FB308E008E0BE5
:1007CE00E62B8F0BE62BEB2B831205088E000E0704
:1007DE0085000D308F00FB308E008E0BF42B8F0BAF
:1007EE00F42BF92BC32BBF238C00C0238D00830168
:0207FE00C12B0D
:02400E00FAFFB7
:00000001FF
